:0400000065EF08F0B0
:100F000000000EC004F00FC005F010C006F011C0C4
:100F100007F0000E096E000E086E0850040FD96E1F
:100F2000DA6ADF5078EC08F0020E036E040E026EEF
:100F3000BA0EE82EFED7022EFCD7032EFAD700D029
:100F4000084A092A09BEAEEF07F0095009E1040E6C
:100F5000085CD8A0AEEF07F0B0EF07F08DEF07F018
:100F6000000E0B6E030E0A6E0A50040FD96EDA6A79
:100F7000DF5078EC08F0020E036E040E026EBA0E1B
:100F8000E82EFED7022EFCD7032EFAD700D00A0691
:100F9000D8A00B060BBED1EF07F0CFEF07F0B4EFF0
:100FA00007F01200000E0D6E000E0C6E81EC07F0C3
:100FB0000C4A0D2A0DBEE6EF07F00D5009E1060EB2
:100FC0000C5CD8A0E6EF07F0E8EF07F0D6EF07F0EB
:100FD000000E0D6E000E0C6E01EC08F00C4A0D2A8E
:100FE0000DBEFCEF07F00D5009E1080E0C5CD8A017
:100FF000FCEF07F0FEEF07F0ECEF07F030EC08F045
:10100000120012C004F013C005F0000E076E000EAF
:10101000066E030E036E080E026E770EE82EFED7E4
:10102000022EFCD7032EFAD700000650040FD96E0B
:10103000DA6ADF50026E0238F00B78EC08F0064AEC
:10104000072A07BE2DEF08F0075009E1020E065CE3
:10105000D8A02DEF08F02FEF08F009EF08F01200EC
:10106000000E046E0438F00B78EC08F0030E036EEB
:101070008A0E026E560EE82EFED7022EFCD7032EE5
:10108000FAD7042A0F0E046448EF08F04AEF08F07C
:1010900032EF08F01200000E876E000E0F010C6F89
:1010A000F00E0E01D317D3518F0B6009D36FD951B6
:1010B000F00B0309D96F8298829A829C829ED2ECAF
:1010C00007F05FEF08F000EF00F0F80EF66E100E7C
:1010D000F76E000EF86E00EE0EF010EE06F009004E
:1010E000F5CFEEFFE550E150FAE100014BEF08F0DB
:0E10F000016E01C082FF120010204080050A30
:020000040030CA
:06000000ECFFFFFF9FFF73
:00000001FF
